{
  "address": "0x99C62eF80CA0ECc942994d407ecA89dDE3625F7d",
  "abi": [
    {
      "inputs": [
        {
          "internalType": "contract IFactory",
          "name": "_factory",
          "type": "address"
        },
        {
          "internalType": "contract IERC20",
          "name": "_uSDT",
          "type": "address"
        },
        {
          "internalType": "address",
          "name": "_roleBasedManager",
          "type": "address"
        }
      ],
      "stateMutability": "nonpayable",
      "type": "constructor"
    },
    {
      "inputs": [
        {
          "internalType": "address",
          "name": "",
          "type": "address"
        }
      ],
      "name": "CallerNotTheCustomer",
      "type": "error"
    },
    {
      "inputs": [],
      "name": "EnforcedPause",
      "type": "error"
    },
    {
      "inputs": [],
      "name": "ExpectedPause",
      "type": "error"
    },
    {
      "inputs": [
        {
          "internalType": "uint256",
          "name": "",
          "type": "uint256"
        }
      ],
      "name": "InvalidItemId",
      "type": "error"
    },
    {
      "inputs": [
        {
          "internalType": "uint256",
          "name": "",
          "type": "uint256"
        }
      ],
      "name": "OrderAlreadyCancelled",
      "type": "error"
    },
    {
      "inputs": [
        {
          "internalType": "uint24",
          "name": "",
          "type": "uint24"
        }
      ],
      "name": "QuantityCannotBeZero",
      "type": "error"
    },
    {
      "inputs": [
        {
          "internalType": "uint8",
          "name": "",
          "type": "uint8"
        }
      ],
      "name": "QuantityShouldBeGreaterThanZero",
      "type": "error"
    },
    {
      "inputs": [
        {
          "internalType": "uint24",
          "name": "requested",
          "type": "uint24"
        },
        {
          "internalType": "uint24",
          "name": "expected",
          "type": "uint24"
        }
      ],
      "name": "RequestedQuantityExceedAvailableQuantity",
      "type": "error"
    },
    {
      "inputs": [],
      "name": "TransferCommitmentFailed",
      "type": "error"
    },
    {
      "inputs": [
        {
          "internalType": "uint8",
          "name": "",
          "type": "uint8"
        }
      ],
      "name": "UnsupportedCategory",
      "type": "error"
    },
    {
      "anonymous": false,
      "inputs": [
        {
          "indexed": false,
          "internalType": "address",
          "name": "account",
          "type": "address"
        }
      ],
      "name": "Paused",
      "type": "event"
    },
    {
      "anonymous": false,
      "inputs": [
        {
          "indexed": false,
          "internalType": "address",
          "name": "account",
          "type": "address"
        }
      ],
      "name": "Unpaused",
      "type": "event"
    },
    {
      "inputs": [
        {
          "internalType": "uint256",
          "name": "itemId",
          "type": "uint256"
        },
        {
          "internalType": "uint256",
          "name": "orderId",
          "type": "uint256"
        }
      ],
      "name": "cancelOrder",
      "outputs": [
        {
          "internalType": "bool",
          "name": "",
          "type": "bool"
        }
      ],
      "stateMutability": "nonpayable",
      "type": "function"
    },
    {
      "inputs": [
        {
          "internalType": "uint256",
          "name": "itemId",
          "type": "uint256"
        },
        {
          "internalType": "uint256",
          "name": "orderId",
          "type": "uint256"
        }
      ],
      "name": "confirmOnReceipt",
      "outputs": [
        {
          "internalType": "bool",
          "name": "",
          "type": "bool"
        }
      ],
      "stateMutability": "nonpayable",
      "type": "function"
    },
    {
      "inputs": [
        {
          "internalType": "uint24",
          "name": "newQuantity",
          "type": "uint24"
        },
        {
          "internalType": "uint256",
          "name": "itemId",
          "type": "uint256"
        },
        {
          "internalType": "uint256",
          "name": "newOfferPrice",
          "type": "uint256"
        },
        {
          "internalType": "uint256",
          "name": "orderId",
          "type": "uint256"
        }
      ],
      "name": "editOrder",
      "outputs": [
        {
          "internalType": "bool",
          "name": "",
          "type": "bool"
        }
      ],
      "stateMutability": "nonpayable",
      "type": "function"
    },
    {
      "inputs": [],
      "name": "feePercentage",
      "outputs": [
        {
          "internalType": "uint8",
          "name": "",
          "type": "uint8"
        }
      ],
      "stateMutability": "view",
      "type": "function"
    },
    {
      "inputs": [],
      "name": "getInterfaceId",
      "outputs": [
        {
          "internalType": "bytes32",
          "name": "",
          "type": "bytes32"
        }
      ],
      "stateMutability": "view",
      "type": "function"
    },
    {
      "inputs": [],
      "name": "pause",
      "outputs": [],
      "stateMutability": "nonpayable",
      "type": "function"
    },
    {
      "inputs": [],
      "name": "paused",
      "outputs": [
        {
          "internalType": "bool",
          "name": "",
          "type": "bool"
        }
      ],
      "stateMutability": "view",
      "type": "function"
    },
    {
      "inputs": [
        {
          "internalType": "uint256",
          "name": "amount",
          "type": "uint256"
        },
        {
          "internalType": "address",
          "name": "seller",
          "type": "address"
        },
        {
          "internalType": "address",
          "name": "feeReceiver",
          "type": "address"
        }
      ],
      "name": "paySeller",
      "outputs": [
        {
          "internalType": "bool",
          "name": "",
          "type": "bool"
        }
      ],
      "stateMutability": "nonpayable",
      "type": "function"
    },
    {
      "inputs": [
        {
          "components": [
            {
              "internalType": "uint24",
              "name": "quantity",
              "type": "uint24"
            },
            {
              "internalType": "uint32",
              "name": "date",
              "type": "uint32"
            },
            {
              "internalType": "uint256",
              "name": "offerPrice",
              "type": "uint256"
            },
            {
              "internalType": "uint256",
              "name": "commitment",
              "type": "uint256"
            },
            {
              "internalType": "address",
              "name": "customer",
              "type": "address"
            },
            {
              "internalType": "enum IFactory.Stage",
              "name": "stage",
              "type": "uint8"
            },
            {
              "components": [
                {
                  "internalType": "bytes",
                  "name": "destination",
                  "type": "bytes"
                },
                {
                  "internalType": "bytes",
                  "name": "contacts",
                  "type": "bytes"
                }
              ],
              "internalType": "struct IFactory.Info",
              "name": "info",
              "type": "tuple"
            },
            {
              "internalType": "address",
              "name": "firstSigner",
              "type": "address"
            }
          ],
          "internalType": "struct IFactory.Order[]",
          "name": "orders",
          "type": "tuple[]"
        }
      ],
      "name": "refund",
      "outputs": [
        {
          "internalType": "bool",
          "name": "",
          "type": "bool"
        }
      ],
      "stateMutability": "nonpayable",
      "type": "function"
    },
    {
      "inputs": [],
      "name": "roleManager",
      "outputs": [
        {
          "internalType": "address",
          "name": "",
          "type": "address"
        }
      ],
      "stateMutability": "view",
      "type": "function"
    },
    {
      "inputs": [
        {
          "internalType": "uint8",
          "name": "newFeePercentage",
          "type": "uint8"
        }
      ],
      "name": "setFeePercentage",
      "outputs": [
        {
          "internalType": "bool",
          "name": "",
          "type": "bool"
        }
      ],
      "stateMutability": "nonpayable",
      "type": "function"
    },
    {
      "inputs": [
        {
          "internalType": "address",
          "name": "newManager",
          "type": "address"
        }
      ],
      "name": "setRoleManager",
      "outputs": [
        {
          "internalType": "bool",
          "name": "",
          "type": "bool"
        }
      ],
      "stateMutability": "nonpayable",
      "type": "function"
    },
    {
      "inputs": [
        {
          "internalType": "uint24",
          "name": "requestedQuantity",
          "type": "uint24"
        },
        {
          "internalType": "uint256",
          "name": "itemId",
          "type": "uint256"
        },
        {
          "internalType": "uint256",
          "name": "offerPrice",
          "type": "uint256"
        },
        {
          "internalType": "string",
          "name": "destinationAddr",
          "type": "string"
        },
        {
          "internalType": "string",
          "name": "contact",
          "type": "string"
        }
      ],
      "name": "startOrder",
      "outputs": [],
      "stateMutability": "nonpayable",
      "type": "function"
    },
    {
      "inputs": [],
      "name": "uSDT",
      "outputs": [
        {
          "internalType": "contract IERC20",
          "name": "",
          "type": "address"
        }
      ],
      "stateMutability": "view",
      "type": "function"
    },
    {
      "inputs": [],
      "name": "unpause",
      "outputs": [],
      "stateMutability": "nonpayable",
      "type": "function"
    }
  ],
  "transactionHash": "0x55111711e81c582054a36ab1a9c67e2c8f24cf0746e022ee70eca58db08195f5",
  "args": [
    "0x1a375D2aEF1370B306B4aCc9d930e3C2defaBF9c",
    "0xb28721f7b977D64F9401161EA91bC25D59F25308",
    "0xe09e23F8a8032BB39326098802c970f9b48D726C"
  ],
  "numDeployments": 1,
  "solcInputHash": "ccab1e199e972aa8de0cd751f703f256",
  "bytecode": "0x60c06040523480156200001157600080fd5b50604051620029a8380380620029a88339810160408190526200003491620001dc565b82828280806200004d8164010000000062000140810204565b50506000805460a060020a60ff021916815560408051808201909152601581527f5f666163746f727920697320756e646566696e656400000000000000000000006020820152620000b291600160a060020a0386169164010000000062000162810204565b50600160a060020a039182166080526001805491909216600160a860020a031990911617743200000000000000000000000000000000000000001790556040517f4255594552000000000000000000000000000000000000000000000000000000602082015260250160408051601f19818403018152919052805160209091012060a0525062000280915050565b60008054600160a060020a031916600160a060020a0392909216919091179055565b81600160a060020a031683600160a060020a031614158190620001bd576040517f08c379a0000000000000000000000000000000000000000000000000000000008152600401620001b4919062000230565b60405180910390fd5b50505050565b600160a060020a0381168114620001d957600080fd5b50565b600080600060608486031215620001f257600080fd5b8351620001ff81620001c3565b60208501519093506200021281620001c3565b60408501519092506200022581620001c3565b809150509250925092565b600060208083528351808285015260005b818110156200025f5785810183015185820160400152820162000241565b506000604082860101526040601f19601f8301168501019250505092915050565b60805160a0516126bc620002ec600039600061016d0152600081816102620152818161031a01528181610406015281816104ab01528181610d8001528181610e3301528181610f860152818161103901528181611149015281816111fc015261175201526126bc6000f3fe608060405234801561001057600080fd5b50600436106100f85760003560e060020a90048063a001ecdd1161009b578063bdf8385a1161006a578063bdf8385a14610210578063c376c8ed14610223578063cbea806c14610236578063f1d588c51461024957600080fd5b8063a001ecdd146101b1578063a5766aa6146101d7578063a941680e146101ea578063b6ed0632146101fd57600080fd5b80635c975abb116100d75780635c975abb1461014a5780636b9241fc1461016857806382a736f3146101965780638456cb59146101a957600080fd5b8062435da5146100fd5780633e64389f1461012d5780633f4ba83a14610142575b600080fd5b60005461011090600160a060020a031681565b604051600160a060020a0390911681526020015b60405180910390f35b61014061013b366004611c46565b61025c565b005b610140610686565b60005460a060020a900460ff165b6040519015158152602001610124565b6040517f00000000000000000000000000000000000000000000000000000000000000008152602001610124565b6101586101a4366004611db8565b6107cc565b6101406109f9565b6001546101c59060a060020a900460ff1681565b60405160ff9091168152602001610124565b6101586101e5366004611f02565b610b2b565b6101586101f8366004611f25565b610c5c565b61015861020b366004611f67565b610d78565b61015861021e366004611f89565b610f7e565b60015461011090600160a060020a031681565b610158610244366004611f67565b611141565b610158610257366004611fc4565b6112c6565b836000807f0000000000000000000000000000000000000000000000000000000000000000600160a060020a0316634e676e236040518163ffffffff1660e060020a028152600401602060405180830381865afa1580156102c1573d6000803e3d6000fd5b505050506040513d601f19601f820116820180604052508101906102e59190611fe1565b831061030f5760405160e260020a6309afba81028152600481018490526024015b60405180910390fd5b80156103fe576103fe7f00000000000000000000000000000000000000000000000000000000000000005b600160a060020a0316633129e773856040518263ffffffff1660e060020a02815260040161036a91815260200190565b600060405180830381865afa158015610387573d6000803e3d6000fd5b505050506040513d6000823e601f3d908101601f191682016040526103af919081019061227d565b6020015160a00151516040518060400160405280600f81526020017f496e76616c6964206f7264657249640000000000000000000000000000000000815250846113f59092919063ffffffff16565b6000806104a27f0000000000000000000000000000000000000000000000000000000000000000600160a060020a0316633129e7738b6040518263ffffffff1660e060020a02815260040161045591815260200190565b600060405180830381865afa158015610472573d6000803e3d6000fd5b505050506040513d6000823e601f3d908101601f1916820160405261049a919081019061227d565b338c8b61141f565b915091506104cd7f000000000000000000000000000000000000000000000000000000000000000090565b600160a060020a031663c5e866386040518061010001604052808d62ffffff1681526020014263ffffffff1681526020018b81526020018581526020016105113390565b600160a060020a0316815260200160008152602001604051806040016040528061053a8d6115c3565b81526020016105488c6115c3565b90528152600060209091015260405160e060020a63ffffffff841602815261057991908d908f870390600401612454565b6020604051808303816000875af1158015610598573d6000803e3d6000fd5b505050506040513d601f19601f820116820180604052508101906105bc919061250d565b50600154600160a060020a03166323b872dd3360405160e060020a63ffffffff8416028152600160a060020a039091166004820152306024820152604481018590526064016020604051808303816000875af1158015610620573d6000803e3d6000fd5b505050506040513d601f19601f82011682018060405250810190610644919061250d565b61067a576040517f64d4deb500000000000000000000000000000000000000000000000000000000815260040160405180910390fd5b50505050505050505050565b60405180606001604052806024815260200161263d60249139600054600160a060020a0316806106cb5760405160e560020a62461bcd0281526004016103069061252f565b600160a060020a038116637ef09bca3360405160e060020a63ffffffff8416028152600160a060020a039091166004820152602401602060405180830381865afa15801561071d573d6000803e3d6000fd5b505050506040513d601f19601f82011682018060405250810190610741919061250d565b82906107635760405160e560020a62461bcd0281526004016103069190612566565b5061076c6115ec565b6000805474ff0000000000000000000000000000000000000000191690557f5db9ee0a495bf2e6ff9c91a7834c1ba4fdd244a5e8aa4e537bd38aeae4b073aa335b604051600160a060020a03909116815260200160405180910390a15050565b600060405180606001604052806026815260200161261760269139600054600160a060020a0316806108135760405160e560020a62461bcd0281526004016103069061252f565b600160a060020a038116637ef09bca3360405160e060020a63ffffffff8416028152600160a060020a039091166004820152602401602060405180830381865afa158015610865573d6000803e3d6000fd5b505050506040513d601f19601f82011682018060405250810190610889919061250d565b82906108ab5760405160e560020a62461bcd0281526004016103069190612566565b5060005b84518110156109ee5760008582815181106108cc576108cc612579565b60200260200101516060015111156109dc5760008582815181106108f2576108f2612579565b602002602001015160a00151600581111561090f5761090f6123b3565b14806109495750600285828151811061092a5761092a612579565b602002602001015160a001516005811115610947576109476123b3565b145b6109985760405160e560020a62461bcd02815260206004820152600e60248201527f42757965723a20426c6f636b65640000000000000000000000000000000000006044820152606401610306565b6109dc8582815181106109ad576109ad612579565b6020026020010151608001518683815181106109cb576109cb612579565b602002602001015160600151611631565b806109e6816125ab565b9150506108af565b506001949350505050565b6040518060600160405280602281526020016125f560229139600054600160a060020a031680610a3e5760405160e560020a62461bcd0281526004016103069061252f565b600160a060020a038116637ef09bca3360405160e060020a63ffffffff8416028152600160a060020a039091166004820152602401602060405180830381865afa158015610a90573d6000803e3d6000fd5b505050506040513d601f19601f82011682018060405250810190610ab4919061250d565b8290610ad65760405160e560020a62461bcd0281526004016103069190612566565b50610adf6116c7565b6000805474ff0000000000000000000000000000000000000000191660a060020a1790557f62e78cea01bee320cd4e420270b5ea74000d11b0c9f74754ebdbfc544b05a2586107ad3390565b60408051808201909152601481527f42757965723a204e6f7420746865206f776e6572000000000000000000000000602082015260008054909190600160a060020a031680610b8f5760405160e560020a62461bcd0281526004016103069061252f565b600160a060020a038116637ef09bca3360405160e060020a63ffffffff8416028152600160a060020a039091166004820152602401602060405180830381865afa158015610be1573d6000803e3d6000fd5b505050506040513d601f19601f82011682018060405250810190610c05919061250d565b8290610c275760405160e560020a62461bcd0281526004016103069190612566565b506001805460ff861660a060020a0274ff00000000000000000000000000000000000000001990911617815592505050919050565b60408051808201909152601e81527f42757965723a204f6e6c7920466163746f727920697320616c6c6f7765640000602082015260008054909190600160a060020a031680610cc05760405160e560020a62461bcd0281526004016103069061252f565b600160a060020a038116637ef09bca3360405160e060020a63ffffffff8416028152600160a060020a039091166004820152602401602060405180830381865afa158015610d12573d6000803e3d6000fd5b505050506040513d601f19601f82011682018060405250810190610d36919061250d565b8290610d585760405160e560020a62461bcd0281526004016103069190612566565b50610d6c85610d67888761170b565b611631565b50600195945050505050565b6000828260017f0000000000000000000000000000000000000000000000000000000000000000600160a060020a0316634e676e236040518163ffffffff1660e060020a028152600401602060405180830381865afa158015610ddf573d6000803e3d6000fd5b505050506040513d601f19601f82011682018060405250810190610e039190611fe1565b8310610e285760405160e260020a6309afba8102815260048101849052602401610306565b8015610e5757610e577f000000000000000000000000000000000000000000000000000000000000000061033a565b600080610e65888833611746565b90925090506003826020015160a001518881518110610e8657610e86612579565b602002602001015160a001516005811115610ea357610ea36123b3565b03610edd576040517ff23ffb5800000000000000000000000000000000000000000000000000000000815260048101889052602401610306565b610ee7828861187f565b6040517fb6ed06320000000000000000000000000000000000000000000000000000000081526004810189905260248101889052600160a060020a0382169063b6ed0632906044016020604051808303816000875af1158015610f4e573d6000803e3d6000fd5b505050506040513d601f19601f82011682018060405250810190610f72919061250d565b98975050505050505050565b6000838260017f0000000000000000000000000000000000000000000000000000000000000000600160a060020a0316634e676e236040518163ffffffff1660e060020a028152600401602060405180830381865afa158015610fe5573d6000803e3d6000fd5b505050506040513d601f19601f820116820180604052508101906110099190611fe1565b831061102e5760405160e260020a6309afba8102815260048101849052602401610306565b801561105d5761105d7f000000000000000000000000000000000000000000000000000000000000000061033a565b60008061106b898833611746565b91509150611079828861187f565b600061108783338d8c61141f565b506040517ffba2739500000000000000000000000000000000000000000000000000000000815262ffffff8d166004820152602481018c9052604481018a9052606481018b905260848101829052909150600160a060020a0383169063fba273959060a4016020604051808303816000875af115801561110b573d6000803e3d6000fd5b505050506040513d601f19601f8201168201806040525081019061112f919061250d565b5060019b9a5050505050505050505050565b6000828260017f0000000000000000000000000000000000000000000000000000000000000000600160a060020a0316634e676e236040518163ffffffff1660e060020a028152600401602060405180830381865afa1580156111a8573d6000803e3d6000fd5b505050506040513d601f19601f820116820180604052508101906111cc9190611fe1565b83106111f15760405160e260020a6309afba8102815260048101849052602401610306565b8015611220576112207f000000000000000000000000000000000000000000000000000000000000000061033a565b600061122d878733611746565b915050600160a060020a038116635650c2e588883360405160e060020a63ffffffff861602815260048101939093526024830191909152600160a060020a031660448201526064016020604051808303816000875af1158015611294573d6000803e3d6000fd5b505050506040513d601f19601f820116820180604052508101906112b8919061250d565b506001979650505050505050565b60408051808201909152601d81527f4f6e6c79526f6c655374617475733a204e6f74207065726d6974746564000000602082015260008054909190600160a060020a03168061132a5760405160e560020a62461bcd0281526004016103069061252f565b600160a060020a038116637ef09bca3360405160e060020a63ffffffff8416028152600160a060020a039091166004820152602401602060405180830381865afa15801561137c573d6000803e3d6000fd5b505050506040513d601f19601f820116820180604052508101906113a0919061250d565b82906113c25760405160e560020a62461bcd0281526004016103069190612566565b506000805473ffffffffffffffffffffffffffffffffffffffff1916600160a060020a0386161790555060019392505050565b808284106114195760405160e560020a62461bcd0281526004016103069190612566565b50505050565b6001546040517fdd62ed3e000000000000000000000000000000000000000000000000000000008152600160a060020a038581166004830152306024830152600092839291169063dd62ed3e90604401602060405180830381865afa15801561148c573d6000803e3d6000fd5b505050506040513d601f19601f820116820180604052508101906114b09190611fe1565b91508362ffffff166000036114f8576040517ffb6134c700000000000000000000000000000000000000000000000000000000815262ffffff85166004820152602401610306565b60208601515162ffffff85161115611552576020860151516040517f62b5a72500000000000000000000000000000000000000000000000000000000815262ffffff80871660048301529091166024820152604401610306565b5060208501515161156862ffffff8516846125c4565b8210156115ba5760405160e560020a62461bcd02815260206004820152601a60248201527f466163746f72793a20416c6c6f77616e636520746f6f206c6f770000000000006044820152606401610306565b94509492505050565b6060816040516020016115d69190612566565b6040516020818303038152906040529050919050565b60005460a060020a900460ff1661162f576040517f8dfc202b00000000000000000000000000000000000000000000000000000000815260040160405180910390fd5b565b6001546040517f095ea7b3000000000000000000000000000000000000000000000000000000008152600160a060020a038481166004830152602482018490529091169063095ea7b3906044015b6020604051808303816000875af115801561169e573d6000803e3d6000fd5b505050506040513d601f19601f820116820180604052508101906116c2919061250d565b505050565b60005460a060020a900460ff161561162f576040517fd93c066500000000000000000000000000000000000000000000000000000000815260040160405180910390fd5b600154600090819061172890859060a060020a900460ff1661190f565b80850392509050801561173f5761173f8184611922565b5092915050565b61174e611a4e565b60007f00000000000000000000000000000000000000000000000000000000000000006040517f3129e77300000000000000000000000000000000000000000000000000000000815260048101879052909150600160a060020a03821690633129e77390602401600060405180830381865afa1580156117d2573d6000803e3d6000fd5b505050506040513d6000823e601f3d908101601f191682016040526117fa919081019061227d565b915082600160a060020a0316826020015160a00151858151811061182057611820612579565b602002602001015160800151600160a060020a031614611877576040517f8ea375ba000000000000000000000000000000000000000000000000000000008152600160a060020a0384166004820152602401610306565b935093915050565b6003826020015160a00151828151811061189b5761189b612579565b602002602001015160a0015160058111156118b8576118b86123b3565b60ff161061190b5760405160e560020a62461bcd02815260206004820181905260248201527f43616e6e6f742063616e63656c206f7264657220617420746869732074696d656044820152606401610306565b5050565b600061191b8383611974565b9392505050565b6001546040517fa9059cbb000000000000000000000000000000000000000000000000000000008152600160a060020a038381166004830152602482018590529091169063a9059cbb9060440161167f565b600061271061ffff83161580611988575083155b15611997576000915050611a24565b6119df8361ffff1661ffff80166040518060400160405280601181526020017f496e746572657374206f766572666c6f770000000000000000000000000000008152506113f5565b611a06848261ffff1660405180606001604052806026815260200161266160269139611a2a565b8061ffff168361ffff16850281611a1f57611a1f6125db565b049150505b92915050565b808284116114195760405160e560020a62461bcd0281526004016103069190612566565b60405180606001604052806000600160a060020a03168152602001611aa26040518060c001604052806000815260200160008152602001600081526020016060815260200160608152602001606081525090565b8152602001611ac260408051808201909152600081526060602082015290565b905290565b62ffffff81168114611ad857600080fd5b50565b8035611ae681611ac7565b919050565b60e060020a634e487b7102600052604160045260246000fd5b6040805190810167ffffffffffffffff81118282101715611b2757611b27611aeb565b60405290565b604051610100810167ffffffffffffffff81118282101715611b2757611b27611aeb565b6040516060810167ffffffffffffffff81118282101715611b2757611b27611aeb565b60405160c0810167ffffffffffffffff81118282101715611b2757611b27611aeb565b604051601f8201601f1916810167ffffffffffffffff81118282101715611bc057611bc0611aeb565b604052919050565b600067ffffffffffffffff821115611be257611be2611aeb565b50601f01601f191660200190565b600082601f830112611c0157600080fd5b8135611c14611c0f82611bc8565b611b97565b818152846020838601011115611c2957600080fd5b816020850160208301376000918101602001919091529392505050565b600080600080600060a08688031215611c5e57600080fd5b8535611c6981611ac7565b94506020860135935060408601359250606086013567ffffffffffffffff80821115611c9457600080fd5b611ca089838a01611bf0565b93506080880135915080821115611cb657600080fd5b50611cc388828901611bf0565b9150509295509295909350565b600067ffffffffffffffff821115611cea57611cea611aeb565b5060209081020190565b63ffffffff81168114611ad857600080fd5b8035611ae681611cf4565b600160a060020a0381168114611ad857600080fd5b8035611ae681611d11565b60068110611ad857600080fd5b8035611ae681611d31565b600060408284031215611d5b57600080fd5b611d63611b04565b9050813567ffffffffffffffff80821115611d7d57600080fd5b611d8985838601611bf0565b83526020840135915080821115611d9f57600080fd5b50611dac84828501611bf0565b60208301525092915050565b60006020808385031215611dcb57600080fd5b823567ffffffffffffffff80821115611de357600080fd5b818501915085601f830112611df757600080fd5b8135611e05611c0f82611cd0565b81815290840283018401908481019088831115611e2157600080fd5b8585015b83811015611ef557803585811115611e3c57600080fd5b8601610100818c03601f1901811315611e5457600080fd5b611e5c611b2d565b611e678a8401611adb565b8152611e7560408401611d06565b8a8201526060830135604082015260808301356060820152611e9960a08401611d26565b6080820152611eaa60c08401611d3e565b60a082015260e08084013589811115611ec35760008081fd5b611ed18f8d83880101611d49565b60c084015250611ee2838501611d26565b9082015285525050918601918601611e25565b5098975050505050505050565b600060208284031215611f1457600080fd5b813560ff8116811461191b57600080fd5b600080600060608486031215611f3a57600080fd5b833592506020840135611f4c81611d11565b91506040840135611f5c81611d11565b809150509250925092565b60008060408385031215611f7a57600080fd5b50508035926020909101359150565b60008060008060808587031215611f9f57600080fd5b8435611faa81611ac7565b966020860135965060408601359560600135945092505050565b600060208284031215611fd657600080fd5b813561191b81611d11565b600060208284031215611ff357600080fd5b5051919050565b8051611ae681611d11565b60005b83811015612020578181015183820152602001612008565b50506000910152565b600082601f83011261203a57600080fd5b8151612048611c0f82611bc8565b81815284602083860101111561205d57600080fd5b61206e826020830160208701612005565b949350505050565b8051611ae681611ac7565b8051611ae681611cf4565b8051611ae681611d31565b6000604082840312156120a957600080fd5b6120b1611b04565b9050815167ffffffffffffffff808211156120cb57600080fd5b6120d785838601612029565b835260208401519150808211156120ed57600080fd5b50611dac84828501612029565b600082601f83011261210b57600080fd5b8151602061211b611c0f83611cd0565b8281529181028401810191818101908684111561213757600080fd5b8286015b8481101561221f57805167ffffffffffffffff8082111561215c5760008081fd5b90880190610100828b03601f19018113156121775760008081fd5b61217f611b2d565b61218a888501612076565b81526040612199818601612081565b89830152606080860151828401526080915081860151818401525060a06121c1818701611ffa565b8284015260c091506121d482870161208c565b9083015260e085810151858111156121ec5760008081fd5b6121fa8f8c838a0101612097565b838501525061220a848701611ffa565b9083015250865250505091830191830161213b565b509695505050505050565b60006040828403121561223c57600080fd5b612244611b04565b90508151600a811061225557600080fd5b8152602082015167ffffffffffffffff81111561227157600080fd5b611dac84828501612029565b60006020828403121561228f57600080fd5b815167ffffffffffffffff808211156122a757600080fd5b90830190606082860312156122bb57600080fd5b6122c3611b51565b82516122ce81611d11565b81526020830151828111156122e257600080fd5b830160c081880312156122f457600080fd5b6122fc611b74565b81518152602082015160208201526040820151604082015260608201518481111561232657600080fd5b61233289828501612029565b60608301525060808201518481111561234a57600080fd5b61235689828501612029565b60808301525060a08201518481111561236e57600080fd5b61237a898285016120fa565b60a08301525060208301525060408301518281111561239857600080fd5b6123a48782860161222a565b60408301525095945050505050565b60e060020a634e487b7102600052602160045260246000fd5b600681106123ed5760e060020a634e487b7102600052602160045260246000fd5b9052565b60008151808452612409816020860160208601612005565b601f01601f19169290920160200192915050565b600081516040845261243260408501826123f1565b90506020830151848203602086015261244b82826123f1565b95945050505050565b6060815262ffffff845116606082015263ffffffff6020850151166080820152604084015160a0820152606084015160c0820152600060808501516124a460e0840182600160a060020a03169052565b5060a08501516101006124b9818501836123cc565b60c0870151915080610120850152506124d661016084018261241d565b905060e08601516124f3610140850182600160a060020a03169052565b506020830185905262ffffff84166040840152905061206e565b60006020828403121561251f57600080fd5b8151801515811461191b57600080fd5b6020808252601f908201527f4f6e6c79526f6c655374617475733a204d616e61676572206e6f742073657400604082015260600190565b60208152600061191b60208301846123f1565b60e060020a634e487b7102600052603260045260246000fd5b60e060020a634e487b7102600052601160045260246000fd5b6000600182016125bd576125bd612592565b5060010190565b8082028115828204841417611a2457611a24612592565b60e060020a634e487b7102600052601260045260246000fdfe5061757361626c653a204f6e6c79526f6c655374617475732063616e20706175736542757965723a204f6e6c792053656c6c657220636f6e747261637420697320616c6c6f7765645061757361626c653a204f6e6c79526f6c655374617475732063616e20756e70617573655072696e636970616c2073686f756c642062652067726561746572207468616e203130303030a264697066735822122094d5bc892b723a33cddff6c8f90f89e940929a830b9e1691ffec2235a4954c6f64736f6c63430008140033",
  "devdoc": {
    "errors": {
      "EnforcedPause()": [
        {
          "details": "The operation failed because the contract is paused."
        }
      ],
      "ExpectedPause()": [
        {
          "details": "The operation failed because the contract is not paused."
        }
      ]
    },
    "events": {
      "Paused(address)": {
        "details": "Emitted when the pause is triggered by `account`."
      },
      "Unpaused(address)": {
        "details": "Emitted when the pause is lifted by `account`."
      }
    },
    "kind": "dev",
    "methods": {
      "cancelOrder(uint256,uint256)": {
        "details": "Buyer cancels order.",
        "params": {
          "itemId": ": Item index.",
          "orderId": ": Position of order in the list/Order index."
        }
      },
      "confirmOnReceipt(uint256,uint256)": {
        "details": "Buyer confirm receipt of goods. On confirmation, the trade is finalized  and payment is released to the seller.",
        "params": {
          "itemId": ": Item Id.",
          "orderId": ": Order Id."
        }
      },
      "editOrder(uint24,uint256,uint256,uint256)": {
        "details": "Edit order.",
        "params": {
          "itemId": ": Item index.",
          "newOfferPrice": ": New offer price.",
          "newQuantity": ": New quantity.",
          "orderId": ": Position of order in the list/Order index."
        }
      },
      "pause()": {
        "details": "Triggers stopped state. Requirements: Only owner role can call. - The contract must not be paused."
      },
      "paused()": {
        "details": "Returns true if the contract is paused, and false otherwise."
      },
      "paySeller(uint256,address,address)": {
        "details": "Buyer pays seller. ",
        "params": {
          "amount": ": Amount to pay.",
          "seller": ": Seller's address."
        }
      },
      "refund((uint24,uint32,uint256,uint256,address,uint8,(bytes,bytes),address)[])": {
        "details": "Refunds Buyer their commitment. This happens when Sellers wish to remove their ADs",
        "params": {
          "orders": ": Order struct data. See IFactory.Order."
        }
      },
      "setRoleManager(address)": {
        "params": {
          "newManager": ": New manager address"
        }
      },
      "startOrder(uint24,uint256,uint256,string,string)": {
        "details": "Buyer makes order for a specific good item showing they're interest indeed. Note: Buyers maintain an internal wallet created automatically for them on signUp. Buyer should give approval to spend before executing this function.",
        "params": {
          "contact": ": Buyer's contract i.e phone/email. Can be concatenate.  Note: While placing order, the buyer make commitment in full amount of the weighted offerPrice and qty.",
          "destinationAddr": ": Address where item should be dispatched if order goes well.",
          "itemId": ": Item Id.",
          "offerPrice": ": The Price buyer is willing to pay per unit of listed item.",
          "requestedQuantity": ": Quantity of item user wants to negotiate for."
        }
      },
      "unpause()": {
        "details": "Returns to normal state. Requirements: - Only owner role can call. - The contract must be paused."
      }
    },
    "version": 1
  },
  "userdoc": {
    "kind": "user",
    "methods": {
      "paySeller(uint256,address,address)": {
        "notice": "Fee is deducted."
      },
      "setFeePercentage(uint8)": {
        "notice": "------> PUBLIC FUNCTIONS <-------  "
      },
      "setRoleManager(address)": {
        "notice": "Set RoleManager"
      }
    },
    "version": 1
  },
  "storageLayout": {
    "storage": [
      {
        "astId": 304,
        "contract": "contracts/implementations/BuyerV1.sol:BuyerV1",
        "label": "roleManager",
        "offset": 0,
        "slot": "0",
        "type": "t_address"
      },
      {
        "astId": 384,
        "contract": "contracts/implementations/BuyerV1.sol:BuyerV1",
        "label": "_paused",
        "offset": 20,
        "slot": "0",
        "type": "t_bool"
      },
      {
        "astId": 1152,
        "contract": "contracts/implementations/BuyerV1.sol:BuyerV1",
        "label": "uSDT",
        "offset": 0,
        "slot": "1",
        "type": "t_contract(IERC20)77"
      },
      {
        "astId": 547,
        "contract": "contracts/implementations/BuyerV1.sol:BuyerV1",
        "label": "feePercentage",
        "offset": 20,
        "slot": "1",
        "type": "t_uint8"
      }
    ],
    "types": {
      "t_address": {
        "encoding": "inplace",
        "label": "address",
        "numberOfBytes": "20"
      },
      "t_bool": {
        "encoding": "inplace",
        "label": "bool",
        "numberOfBytes": "1"
      },
      "t_contract(IERC20)77": {
        "encoding": "inplace",
        "label": "contract IERC20",
        "numberOfBytes": "20"
      },
      "t_uint8": {
        "encoding": "inplace",
        "label": "uint8",
        "numberOfBytes": "1"
      }
    }
  }
}