{
  "address": "0xfFF63Bc9aa8343e10870f871f7BE2Fd8a4D844e9",
  "abi": [
    {
      "inputs": [
        {
          "internalType": "contract IFactory",
          "name": "_factory",
          "type": "address"
        },
        {
          "internalType": "contract IERC20",
          "name": "_uSDT",
          "type": "address"
        },
        {
          "internalType": "address",
          "name": "_buyerContract",
          "type": "address"
        },
        {
          "internalType": "address",
          "name": "_roleManager",
          "type": "address"
        }
      ],
      "stateMutability": "nonpayable",
      "type": "constructor"
    },
    {
      "inputs": [],
      "name": "EnforcedPause",
      "type": "error"
    },
    {
      "inputs": [],
      "name": "ExpectedPause",
      "type": "error"
    },
    {
      "inputs": [
        {
          "internalType": "uint256",
          "name": "",
          "type": "uint256"
        }
      ],
      "name": "InvalidItemId",
      "type": "error"
    },
    {
      "inputs": [
        {
          "internalType": "uint8",
          "name": "",
          "type": "uint8"
        }
      ],
      "name": "InvalidStageSelector",
      "type": "error"
    },
    {
      "inputs": [],
      "name": "OrderResolved",
      "type": "error"
    },
    {
      "inputs": [
        {
          "internalType": "uint256",
          "name": "",
          "type": "uint256"
        }
      ],
      "name": "QuantityShouldBeGreaterThanZero",
      "type": "error"
    },
    {
      "inputs": [
        {
          "internalType": "uint8",
          "name": "",
          "type": "uint8"
        }
      ],
      "name": "UnsupportedCategory",
      "type": "error"
    },
    {
      "anonymous": false,
      "inputs": [
        {
          "components": [
            {
              "internalType": "address",
              "name": "seller",
              "type": "address"
            },
            {
              "components": [
                {
                  "internalType": "uint256",
                  "name": "quantity",
                  "type": "uint256"
                },
                {
                  "internalType": "uint256",
                  "name": "id",
                  "type": "uint256"
                },
                {
                  "internalType": "uint256",
                  "name": "priceLimit",
                  "type": "uint256"
                },
                {
                  "internalType": "bytes",
                  "name": "description",
                  "type": "bytes"
                },
                {
                  "internalType": "bytes",
                  "name": "location",
                  "type": "bytes"
                },
                {
                  "components": [
                    {
                      "internalType": "uint24",
                      "name": "quantity",
                      "type": "uint24"
                    },
                    {
                      "internalType": "uint32",
                      "name": "date",
                      "type": "uint32"
                    },
                    {
                      "internalType": "uint256",
                      "name": "offerPrice",
                      "type": "uint256"
                    },
                    {
                      "internalType": "uint256",
                      "name": "commitment",
                      "type": "uint256"
                    },
                    {
                      "internalType": "address",
                      "name": "customer",
                      "type": "address"
                    },
                    {
                      "internalType": "enum IFactory.Stage",
                      "name": "stage",
                      "type": "uint8"
                    },
                    {
                      "components": [
                        {
                          "internalType": "bytes",
                          "name": "destination",
                          "type": "bytes"
                        },
                        {
                          "internalType": "bytes",
                          "name": "contacts",
                          "type": "bytes"
                        }
                      ],
                      "internalType": "struct IFactory.Info",
                      "name": "info",
                      "type": "tuple"
                    },
                    {
                      "internalType": "address",
                      "name": "firstSigner",
                      "type": "address"
                    }
                  ],
                  "internalType": "struct IFactory.Order[]",
                  "name": "orders",
                  "type": "tuple[]"
                }
              ],
              "internalType": "struct IFactory.ItemInfo",
              "name": "info",
              "type": "tuple"
            },
            {
              "components": [
                {
                  "internalType": "enum IFactory.Category",
                  "name": "category",
                  "type": "uint8"
                },
                {
                  "internalType": "bytes",
                  "name": "uri",
                  "type": "bytes"
                }
              ],
              "internalType": "struct IFactory.ItemMetadata",
              "name": "meta",
              "type": "tuple"
            }
          ],
          "indexed": false,
          "internalType": "struct IFactory.Item",
          "name": "",
          "type": "tuple"
        }
      ],
      "name": "ItemAdded",
      "type": "event"
    },
    {
      "anonymous": false,
      "inputs": [
        {
          "indexed": false,
          "internalType": "address",
          "name": "account",
          "type": "address"
        }
      ],
      "name": "Paused",
      "type": "event"
    },
    {
      "anonymous": false,
      "inputs": [
        {
          "indexed": false,
          "internalType": "address",
          "name": "account",
          "type": "address"
        }
      ],
      "name": "Unpaused",
      "type": "event"
    },
    {
      "inputs": [
        {
          "internalType": "uint8",
          "name": "stageSelector",
          "type": "uint8"
        },
        {
          "internalType": "uint256",
          "name": "itemId",
          "type": "uint256"
        },
        {
          "internalType": "uint256",
          "name": "orderId",
          "type": "uint256"
        }
      ],
      "name": "acceptOrder",
      "outputs": [
        {
          "internalType": "bool",
          "name": "",
          "type": "bool"
        }
      ],
      "stateMutability": "nonpayable",
      "type": "function"
    },
    {
      "inputs": [],
      "name": "buyerContract",
      "outputs": [
        {
          "internalType": "address",
          "name": "",
          "type": "address"
        }
      ],
      "stateMutability": "view",
      "type": "function"
    },
    {
      "inputs": [
        {
          "internalType": "uint256",
          "name": "itemId",
          "type": "uint256"
        },
        {
          "internalType": "uint256",
          "name": "newPriceLimit",
          "type": "uint256"
        }
      ],
      "name": "editPriceLimit",
      "outputs": [
        {
          "internalType": "bool",
          "name": "",
          "type": "bool"
        }
      ],
      "stateMutability": "nonpayable",
      "type": "function"
    },
    {
      "inputs": [
        {
          "internalType": "uint24",
          "name": "newQuantity",
          "type": "uint24"
        },
        {
          "internalType": "uint256",
          "name": "itemId",
          "type": "uint256"
        }
      ],
      "name": "editQuantity",
      "outputs": [
        {
          "internalType": "bool",
          "name": "",
          "type": "bool"
        }
      ],
      "stateMutability": "nonpayable",
      "type": "function"
    },
    {
      "inputs": [],
      "name": "getInterfaceId",
      "outputs": [
        {
          "internalType": "bytes32",
          "name": "",
          "type": "bytes32"
        }
      ],
      "stateMutability": "view",
      "type": "function"
    },
    {
      "inputs": [
        {
          "internalType": "uint8",
          "name": "quantity",
          "type": "uint8"
        },
        {
          "internalType": "uint8",
          "name": "categorySelector",
          "type": "uint8"
        },
        {
          "internalType": "uint256",
          "name": "priceLimit",
          "type": "uint256"
        },
        {
          "internalType": "string",
          "name": "imageUrI",
          "type": "string"
        },
        {
          "internalType": "string",
          "name": "description",
          "type": "string"
        },
        {
          "internalType": "string",
          "name": "location",
          "type": "string"
        }
      ],
      "name": "listItem",
      "outputs": [
        {
          "internalType": "bool",
          "name": "",
          "type": "bool"
        }
      ],
      "stateMutability": "nonpayable",
      "type": "function"
    },
    {
      "inputs": [],
      "name": "pause",
      "outputs": [],
      "stateMutability": "nonpayable",
      "type": "function"
    },
    {
      "inputs": [],
      "name": "paused",
      "outputs": [
        {
          "internalType": "bool",
          "name": "",
          "type": "bool"
        }
      ],
      "stateMutability": "view",
      "type": "function"
    },
    {
      "inputs": [
        {
          "internalType": "uint256",
          "name": "itemId",
          "type": "uint256"
        }
      ],
      "name": "removeItem",
      "outputs": [
        {
          "internalType": "bool",
          "name": "",
          "type": "bool"
        }
      ],
      "stateMutability": "nonpayable",
      "type": "function"
    },
    {
      "inputs": [],
      "name": "roleManager",
      "outputs": [
        {
          "internalType": "address",
          "name": "",
          "type": "address"
        }
      ],
      "stateMutability": "view",
      "type": "function"
    },
    {
      "inputs": [
        {
          "internalType": "address",
          "name": "newManager",
          "type": "address"
        }
      ],
      "name": "setRoleManager",
      "outputs": [
        {
          "internalType": "bool",
          "name": "",
          "type": "bool"
        }
      ],
      "stateMutability": "nonpayable",
      "type": "function"
    },
    {
      "inputs": [],
      "name": "uSDT",
      "outputs": [
        {
          "internalType": "contract IERC20",
          "name": "",
          "type": "address"
        }
      ],
      "stateMutability": "view",
      "type": "function"
    },
    {
      "inputs": [],
      "name": "unpause",
      "outputs": [],
      "stateMutability": "nonpayable",
      "type": "function"
    }
  ],
  "transactionHash": "0xb334e25a9d40656758eb9b20537996d1ebd55e49f1745365fde939dd71d50bb0",
  "args": [
    "0x1a375D2aEF1370B306B4aCc9d930e3C2defaBF9c",
    "0xb28721f7b977D64F9401161EA91bC25D59F25308",
    "0x99C62eF80CA0ECc942994d407ecA89dDE3625F7d",
    "0xe09e23F8a8032BB39326098802c970f9b48D726C"
  ],
  "numDeployments": 1,
  "solcInputHash": "ac0fce825edebd2a7665c7bbef4eae80",
  "bytecode": "0x60c06040523480156200001157600080fd5b50604051620022ff380380620022ff8339810160408190526200003491620001de565b83838280806200004d8164010000000062000142810204565b50506000805460a060020a60ff021916815560408051808201909152601581527f5f666163746f727920697320756e646566696e656400000000000000000000006020820152620000b291600160a060020a0386169164010000000062000164810204565b50600160a060020a0391821660805260018054918316600160a060020a031992831617905560028054928516929091169190911790556040516200011c906020017f53454c4c45520000000000000000000000000000000000000000000000000000815260060190565b60408051601f19818403018152919052805160209091012060a052506200029692505050565b60008054600160a060020a031916600160a060020a0392909216919091179055565b81600160a060020a031683600160a060020a031614158190620001bf576040517f08c379a0000000000000000000000000000000000000000000000000000000008152600401620001b6919062000246565b60405180910390fd5b50505050565b600160a060020a0381168114620001db57600080fd5b50565b60008060008060808587031215620001f557600080fd5b84516200020281620001c5565b60208601519094506200021581620001c5565b60408601519093506200022881620001c5565b60608601519092506200023b81620001c5565b939692955090935050565b600060208083528351808285015260005b81811015620002755785810183015185820160400152820162000257565b506000604082860101526040601f19601f8301168501019250505092915050565b60805160a051611fe862000317600039600061016f015260008181610219015281816102d101528181610424015281816104e20152818161060801528181610852015281816109050152818161093701528181610c6601528181610d1901528181610d8901528181610dc001528181610e730152610ef70152611fe86000f3fe608060405234801561001057600080fd5b50600436106100d25760003560e060020a900480637132917111610090578063b33347f91161006a578063b33347f9146101c6578063c376c8ed146101d9578063dedfb104146101ec578063f1d588c5146101ff57600080fd5b806371329171146101985780638456cb59146101ab57806394d71bc4146101b357600080fd5b8062435da5146100d75780632a5f6de8146101075780633c6e0f371461012a5780633f4ba83a1461013d5780635c975abb146101475780636b9241fc1461016a575b600080fd5b6000546100ea90600160a060020a031681565b604051600160a060020a0390911681526020015b60405180910390f35b61011a61011536600461147e565b610212565b60405190151581526020016100fe565b61011a610138366004611627565b61055e565b610145610705565b005b60005474010000000000000000000000000000000000000000900460ff1661011a565b6040517f000000000000000000000000000000000000000000000000000000000000000081526020016100fe565b61011a6101a63660046116d9565b61084b565b610145610b1c565b61011a6101c1366004611706565b610c5f565b61011a6101d4366004611732565b610db8565b6001546100ea90600160a060020a031681565b6002546100ea90600160a060020a031681565b61011a61020d36600461177a565b611243565b60008281807f0000000000000000000000000000000000000000000000000000000000000000600160a060020a0316634e676e236040518163ffffffff1660e060020a028152600401602060405180830381865afa158015610278573d6000803e3d6000fd5b505050506040513d601f19601f8201168201806040525081019061029c919061179e565b83106102c65760405160e260020a6309afba81028152600481018490526024015b60405180910390fd5b80156103b5576103b57f00000000000000000000000000000000000000000000000000000000000000005b600160a060020a0316633129e773856040518263ffffffff1660e060020a02815260040161032191815260200190565b600060405180830381865afa15801561033e573d6000803e3d6000fd5b505050506040513d6000823e601f3d908101601f191682016040526103669190810190611a65565b6020015160a00151516040518060400160405280600f81526020017f496e76616c6964206f7264657249640000000000000000000000000000000000815250846113729092919063ffffffff16565b856104a4335b604080518082018252601581527f4f6e6c7953656c6c657220697320616c6c6f7765640000000000000000000000602082015290517f3129e77300000000000000000000000000000000000000000000000000000000815260048101859052600160a060020a037f00000000000000000000000000000000000000000000000000000000000000001690633129e77390602401600060405180830381865afa15801561046b573d6000803e3d6000fd5b505050506040513d6000823e601f3d908101601f191682016040526104939190810190611a65565b51600160a060020a0316919061139c565b6040517f2a5f6de80000000000000000000000000000000000000000000000000000000081526004810188905260248101879052600160a060020a037f00000000000000000000000000000000000000000000000000000000000000001690632a5f6de8906044015b6020604051808303816000875af115801561052c573d6000803e3d6000fd5b505050506040513d601f19601f820116820180604052508101906105509190611b9b565b506001979650505050505050565b600085600a8160ff16106105a3576040517fb251f34600000000000000000000000000000000000000000000000000000000815260ff821660048201526024016102bd565b8760ff166000036105e5576040517f826aa25900000000000000000000000000000000000000000000000000000000815260ff891660048201526024016102bd565b7f76d4238e656870cfd07edd53351003d94e9c38a8ba032fa1c1014f7eef7f85167f0000000000000000000000000000000000000000000000000000000000000000600160a060020a031663f443914e6040518060e001604052808c60ff1681526020018b60ff1681526020018a81526020018981526020018881526020018781526020016106713390565b600160a060020a0316905260405160e060020a63ffffffff841602815261069b9190600401611be9565b6000604051808303816000875af11580156106ba573d6000803e3d6000fd5b505050506040513d6000823e601f3d908101601f191682016040526106e29190810190611a65565b6040516106ef9190611e11565b60405180910390a1506001979650505050505050565b604051806060016040528060248152602001611f8f60249139600054600160a060020a03168061074a5760405160e560020a62461bcd0281526004016102bd90611ec5565b600160a060020a038116637ef09bca3360405160e060020a63ffffffff8416028152600160a060020a039091166004820152602401602060405180830381865afa15801561079c573d6000803e3d6000fd5b505050506040513d601f19601f820116820180604052508101906107c09190611b9b565b82906107e25760405160e560020a62461bcd0281526004016102bd9190611efc565b506107eb6113d3565b6000805474ff0000000000000000000000000000000000000000191690557f5db9ee0a495bf2e6ff9c91a7834c1ba4fdd244a5e8aa4e537bd38aeae4b073aa335b604051600160a060020a03909116815260200160405180910390a15050565b60008181807f0000000000000000000000000000000000000000000000000000000000000000600160a060020a0316634e676e236040518163ffffffff1660e060020a028152600401602060405180830381865afa1580156108b1573d6000803e3d6000fd5b505050506040513d601f19601f820116820180604052508101906108d5919061179e565b83106108fa5760405160e260020a6309afba81028152600481018490526024016102bd565b8015610929576109297f00000000000000000000000000000000000000000000000000000000000000006102f1565b84610933336103bb565b60007f00000000000000000000000000000000000000000000000000000000000000006040517f3129e77300000000000000000000000000000000000000000000000000000000815260048101899052909150600090600160a060020a03831690633129e77390602401600060405180830381865afa1580156109ba573d6000803e3d6000fd5b505050506040513d6000823e601f3d908101601f191682016040526109e29190810190611a65565b602081015160a001515190915015610a8957600254602082015160a001516040517f82a736f3000000000000000000000000000000000000000000000000000000008152600160a060020a03909216916382a736f391610a4491600401611f0f565b6020604051808303816000875af1158015610a63573d6000803e3d6000fd5b505050506040513d601f19601f82011682018060405250810190610a879190611b9b565b505b6040517f7132917100000000000000000000000000000000000000000000000000000000815260048101899052600160a060020a038316906371329171906024016020604051808303816000875af1158015610ae9573d6000803e3d6000fd5b505050506040513d601f19601f82011682018060405250810190610b0d9190611b9b565b50600198975050505050505050565b604051806060016040528060228152602001611f6d60229139600054600160a060020a031680610b615760405160e560020a62461bcd0281526004016102bd90611ec5565b600160a060020a038116637ef09bca3360405160e060020a63ffffffff8416028152600160a060020a039091166004820152602401602060405180830381865afa158015610bb3573d6000803e3d6000fd5b505050506040513d601f19601f82011682018060405250810190610bd79190611b9b565b8290610bf95760405160e560020a62461bcd0281526004016102bd9190611efc565b50610c02611429565b6000805474ff00000000000000000000000000000000000000001916740100000000000000000000000000000000000000001790557f62e78cea01bee320cd4e420270b5ea74000d11b0c9f74754ebdbfc544b05a25861082c3390565b60008181807f0000000000000000000000000000000000000000000000000000000000000000600160a060020a0316634e676e236040518163ffffffff1660e060020a028152600401602060405180830381865afa158015610cc5573d6000803e3d6000fd5b505050506040513d601f19601f82011682018060405250810190610ce9919061179e565b8310610d0e5760405160e260020a6309afba81028152600481018490526024016102bd565b8015610d3d57610d3d7f00000000000000000000000000000000000000000000000000000000000000006102f1565b84610d47336103bb565b6040517f94d71bc400000000000000000000000000000000000000000000000000000000815262ffffff8816600482015260248101879052600160a060020a037f000000000000000000000000000000000000000000000000000000000000000016906394d71bc49060440161050d565b6000828260017f0000000000000000000000000000000000000000000000000000000000000000600160a060020a0316634e676e236040518163ffffffff1660e060020a028152600401602060405180830381865afa158015610e1f573d6000803e3d6000fd5b505050506040513d601f19601f82011682018060405250810190610e43919061179e565b8310610e685760405160e260020a6309afba81028152600481018490526024016102bd565b8015610e9757610e977f00000000000000000000000000000000000000000000000000000000000000006102f1565b85610ea1336103bb565b60068860ff16101580610eb757508760ff166003145b15610ef3576040517f947448bc00000000000000000000000000000000000000000000000000000000815260ff891660048201526024016102bd565b60007f00000000000000000000000000000000000000000000000000000000000000006040517f3129e773000000000000000000000000000000000000000000000000000000008152600481018a9052909150600090600160a060020a03831690633129e77390602401600060405180830381865afa158015610f7a573d6000803e3d6000fd5b505050506040513d6000823e601f3d908101601f19168201604052610fa29190810190611a65565b9050806020015160a00151518810610fff5760405160e560020a62461bcd02815260206004820152600f60248201527f496e76616c6964206f726465724964000000000000000000000000000000000060448201526064016102bd565b6000816020015160a00151898151811061101b5761101b611f22565b602002602001015160a0015190506003600581111561103c5761103c611c8b565b81600581111561104e5761104e611c8b565b148061106b5750600581600581111561106957611069611c8b565b145b156110a2576040517fe7dd7e7c00000000000000000000000000000000000000000000000000000000815260040160405180910390fd5b82600160a060020a031663ef02617e8b8b8e60ff1660058111156110c8576110c8611c8b565b6040518463ffffffff1660e060020a0281526004016110e993929190611f51565b6020604051808303816000875af1158015611108573d6000803e3d6000fd5b505050506040513d601f19601f8201168201806040525081019061112c9190611b9b565b61117b5760405160e560020a62461bcd02815260206004820152601860248201527f53656c6c65723a204f7065726174696f6e206661696c6564000000000000000060448201526064016102bd565b60058b60ff16600581111561119257611192611c8b565b60058111156111a3576111a3611c8b565b0361123257600160a060020a038316635650c2e58b8b3360405160e060020a63ffffffff861602815260048101939093526024830191909152600160a060020a031660448201526064016020604051808303816000875af115801561120c573d6000803e3d6000fd5b505050506040513d601f19601f820116820180604052508101906112309190611b9b565b505b5060019a9950505050505050505050565b60408051808201909152601d81527f4f6e6c79526f6c655374617475733a204e6f74207065726d6974746564000000602082015260008054909190600160a060020a0316806112a75760405160e560020a62461bcd0281526004016102bd90611ec5565b600160a060020a038116637ef09bca3360405160e060020a63ffffffff8416028152600160a060020a039091166004820152602401602060405180830381865afa1580156112f9573d6000803e3d6000fd5b505050506040513d601f19601f8201168201806040525081019061131d9190611b9b565b829061133f5760405160e560020a62461bcd0281526004016102bd9190611efc565b506000805473ffffffffffffffffffffffffffffffffffffffff1916600160a060020a0386161790555060019392505050565b808284106113965760405160e560020a62461bcd0281526004016102bd9190611efc565b50505050565b81600160a060020a031683600160a060020a03161481906113965760405160e560020a62461bcd0281526004016102bd9190611efc565b60005474010000000000000000000000000000000000000000900460ff16611427576040517f8dfc202b00000000000000000000000000000000000000000000000000000000815260040160405180910390fd5b565b60005474010000000000000000000000000000000000000000900460ff1615611427576040517fd93c066500000000000000000000000000000000000000000000000000000000815260040160405180910390fd5b6000806040838503121561149157600080fd5b50508035926020909101359150565b803560ff811681146114b157600080fd5b919050565b7f4e487b7100000000000000000000000000000000000000000000000000000000600052604160045260246000fd5b6040805190810167ffffffffffffffff81118282101715611508576115086114b6565b60405290565b604051610100810167ffffffffffffffff81118282101715611508576115086114b6565b6040516060810167ffffffffffffffff81118282101715611508576115086114b6565b60405160c0810167ffffffffffffffff81118282101715611508576115086114b6565b604051601f8201601f1916810167ffffffffffffffff811182821017156115a1576115a16114b6565b604052919050565b600067ffffffffffffffff8211156115c3576115c36114b6565b50601f01601f191660200190565b600082601f8301126115e257600080fd5b81356115f56115f0826115a9565b611578565b81815284602083860101111561160a57600080fd5b816020850160208301376000918101602001919091529392505050565b60008060008060008060c0878903121561164057600080fd5b611649876114a0565b9550611657602088016114a0565b945060408701359350606087013567ffffffffffffffff8082111561167b57600080fd5b6116878a838b016115d1565b9450608089013591508082111561169d57600080fd5b6116a98a838b016115d1565b935060a08901359150808211156116bf57600080fd5b506116cc89828a016115d1565b9150509295509295509295565b6000602082840312156116eb57600080fd5b5035919050565b62ffffff8116811461170357600080fd5b50565b6000806040838503121561171957600080fd5b8235611724816116f2565b946020939093013593505050565b60008060006060848603121561174757600080fd5b611750846114a0565b95602085013595506040909401359392505050565b600160a060020a038116811461170357600080fd5b60006020828403121561178c57600080fd5b813561179781611765565b9392505050565b6000602082840312156117b057600080fd5b5051919050565b80516114b181611765565b60005b838110156117dd5781810151838201526020016117c5565b50506000910152565b600082601f8301126117f757600080fd5b81516118056115f0826115a9565b81815284602083860101111561181a57600080fd5b61182b8260208301602087016117c2565b949350505050565b80516114b1816116f2565b805163ffffffff811681146114b157600080fd5b8051600681106114b157600080fd5b60006040828403121561187357600080fd5b61187b6114e5565b9050815167ffffffffffffffff8082111561189557600080fd5b6118a1858386016117e6565b835260208401519150808211156118b757600080fd5b506118c4848285016117e6565b60208301525092915050565b600082601f8301126118e157600080fd5b8151602067ffffffffffffffff808311156118fe576118fe6114b6565b81830261190c838201611578565b938452858101830193838101908886111561192657600080fd5b84880192505b85831015611a06578251848111156119445760008081fd5b8801610100818b03601f190181131561195d5760008081fd5b61196561150e565b611970888401611833565b8152604061197f81850161183e565b89830152606080850151828401526080915081850151818401525060a06119a78186016117b7565b8284015260c091506119ba828601611852565b9083015260e084810151898111156119d25760008081fd5b6119e08f8c83890101611861565b83850152506119f08486016117b7565b908301525084525050918401919084019061192c565b98975050505050505050565b600060408284031215611a2457600080fd5b611a2c6114e5565b90508151600a8110611a3d57600080fd5b8152602082015167ffffffffffffffff811115611a5957600080fd5b6118c4848285016117e6565b600060208284031215611a7757600080fd5b815167ffffffffffffffff80821115611a8f57600080fd5b9083019060608286031215611aa357600080fd5b611aab611532565b8251611ab681611765565b8152602083015182811115611aca57600080fd5b830160c08188031215611adc57600080fd5b611ae4611555565b815181526020820151602082015260408201516040820152606082015184811115611b0e57600080fd5b611b1a898285016117e6565b606083015250608082015184811115611b3257600080fd5b611b3e898285016117e6565b60808301525060a082015184811115611b5657600080fd5b611b62898285016118d0565b60a083015250602083015250604083015182811115611b8057600080fd5b611b8c87828601611a12565b60408301525095945050505050565b600060208284031215611bad57600080fd5b8151801515811461179757600080fd5b60008151808452611bd58160208601602086016117c2565b601f01601f19169290920160200192915050565b6020815260ff825116602082015260ff6020830151166040820152604082015160608201526000606083015160e06080840152611c2a610100840182611bbd565b90506080840151601f19808584030160a0860152611c488383611bbd565b925060a08601519150808584030160c086015250611c668282611bbd565b91505060c0840151611c8360e0850182600160a060020a03169052565b509392505050565b7f4e487b7100000000000000000000000000000000000000000000000000000000600052602160045260246000fd5b60068110611cca57611cca611c8b565b9052565b6000815160408452611ce36040850182611bbd565b905060208301518482036020860152611cfc8282611bbd565b95945050505050565b600081518084526020808501808196508284028101915082860160005b85811015611dd35782840389528151805162ffffff1685528581015163ffffffff16868601526040808201519086015260608082015190860152608080820151600160a060020a03169086015260a0808201516101009190611d8682890182611cba565b505060c0808301518282890152611d9f83890182611cce565b9250505060e0808301519250611dbf81880184600160a060020a03169052565b509986019994505090840190600101611d22565b5091979650505050505050565b60008151600a8110611df457611df4611c8b565b8084525060208201516040602085015261182b6040850182611bbd565b60208152600160a060020a038251166020820152600060208301516060604084015280516080840152602081015160a0840152604081015160c0840152606081015160c060e0850152611e68610140850182611bbd565b90506080820151607f198086840301610100870152611e878383611bbd565b925060a0840151935080868403016101208701525050611ea78183611d05565b9150506040840151601f19848303016060850152611cfc8282611de0565b6020808252601f908201527f4f6e6c79526f6c655374617475733a204d616e61676572206e6f742073657400604082015260600190565b6020815260006117976020830184611bbd565b6020815260006117976020830184611d05565b7f4e487b7100000000000000000000000000000000000000000000000000000000600052603260045260246000fd5b838152602081018390526060810161182b6040830184611cba56fe5061757361626c653a204f6e6c79526f6c655374617475732063616e2070617573655061757361626c653a204f6e6c79526f6c655374617475732063616e20756e7061757365a26469706673582212209ba16739e619c1c6eb81fdaca11a7645dd7e8f13e7eb1464057f0f086f589cfe64736f6c63430008140033",
  "devdoc": {
    "errors": {
      "EnforcedPause()": [
        {
          "details": "The operation failed because the contract is paused."
        }
      ],
      "ExpectedPause()": [
        {
          "details": "The operation failed because the contract is not paused."
        }
      ]
    },
    "events": {
      "Paused(address)": {
        "details": "Emitted when the pause is triggered by `account`."
      },
      "Unpaused(address)": {
        "details": "Emitted when the pause is lifted by `account`."
      }
    },
    "kind": "dev",
    "methods": {
      "acceptOrder(uint8,uint256,uint256)": {
        "details": "Move order to the next stage. Example: A seller can accept or reject order but cannot cancel order i.e stage must not equal index 3.  Only the buyer can cancel.",
        "params": {
          "itemId": ": Item id/index/position.",
          "orderId": ": Order id/index/position.",
          "stageSelector": ": Stage selector should be in number since enums are index-based."
        }
      },
      "editPriceLimit(uint256,uint256)": {
        "details": "Edits price of an item.",
        "params": {
          "itemId": ": Item index.",
          "newPriceLimit": ": Latest price."
        }
      },
      "editQuantity(uint24,uint256)": {
        "params": {
          "itemId": ": Item index.",
          "newQuantity": ": New Quantity"
        }
      },
      "listItem(uint8,uint8,uint256,string,string,string)": {
        "details": "Add new Item to storeFront.",
        "params": {
          "categorySelector": ": Main category of item.",
          "description": ": Item description.",
          "imageUrI": ": Image urI i.e IPFS link to uploaded images.",
          "location": ": Seller's location/address.",
          "priceLimit": ": Price per unit of item.",
          "quantity": ": Quantity of item seller has to sell."
        }
      },
      "pause()": {
        "details": "Triggers stopped state. Requirements: Only owner role can call. - The contract must not be paused."
      },
      "paused()": {
        "details": "Returns true if the contract is paused, and false otherwise."
      },
      "removeItem(uint256)": {
        "details": "Removes item from storefront.",
        "params": {
          "itemId": ": Item id"
        }
      },
      "setRoleManager(address)": {
        "params": {
          "newManager": ": New manager address"
        }
      },
      "unpause()": {
        "details": "Returns to normal state. Requirements: - Only owner role can call. - The contract must be paused."
      }
    },
    "version": 1
  },
  "userdoc": {
    "kind": "user",
    "methods": {
      "editQuantity(uint24,uint256)": {
        "notice": "Edit item quantity"
      },
      "setRoleManager(address)": {
        "notice": "Set RoleManager"
      }
    },
    "version": 1
  },
  "storageLayout": {
    "storage": [
      {
        "astId": 1278,
        "contract": "contracts/implementations/SellerV1.sol:SellerV1",
        "label": "roleManager",
        "offset": 0,
        "slot": "0",
        "type": "t_address"
      },
      {
        "astId": 1358,
        "contract": "contracts/implementations/SellerV1.sol:SellerV1",
        "label": "_paused",
        "offset": 20,
        "slot": "0",
        "type": "t_bool"
      },
      {
        "astId": 2107,
        "contract": "contracts/implementations/SellerV1.sol:SellerV1",
        "label": "uSDT",
        "offset": 0,
        "slot": "1",
        "type": "t_contract(IERC20)877"
      },
      {
        "astId": 3084,
        "contract": "contracts/implementations/SellerV1.sol:SellerV1",
        "label": "buyerContract",
        "offset": 0,
        "slot": "2",
        "type": "t_address"
      }
    ],
    "types": {
      "t_address": {
        "encoding": "inplace",
        "label": "address",
        "numberOfBytes": "20"
      },
      "t_bool": {
        "encoding": "inplace",
        "label": "bool",
        "numberOfBytes": "1"
      },
      "t_contract(IERC20)877": {
        "encoding": "inplace",
        "label": "contract IERC20",
        "numberOfBytes": "20"
      }
    }
  }
}